TRX0000000030000001003E102F0000000005000CUENTA BLOQUEADA                        
TRX0000000040000009999E101F0000000002000CUENTA NO EXISTE                        
TRX0000000050000001001E103F0000000500000SALDO INSUFICIENTE                      
TRX0000000060000002001E106F0000000030000DIVISA NO COINCIDE                      
TRX0000000070000001002E104F0000000001000TIPO OPERACION INVALIDO                 
TRX0000000080000001001E105F0000000000000IMPORTE NO VALIDO                       
