TRX000000003ES3021000418401234567891E102F0000000005000CUENTA BLOQUEADA                        
TRX000000004ES0000000000000000000000E101F0000000002000CUENTA NO EXISTE                        
TRX000000005ES9121000418450200051332E103F0000000500000SALDO INSUFICIENTE                      
TRX000000006ES6621000418401234567890E106F0000000030000DIVISA NO COINCIDE                      
TRX000000007ES7921000813610123456789E104F0000000001000TIPO OPERACION INVALIDO                 
TRX000000008ES9121000418450200051332E105F0000000000000IMPORTE NO VALIDO                       
