0000001001OPERATIVA PRINCIPAL           AEUR000000015000020260401
0000001002NOMINA CENTRAL                AEUR000000008005020260401
0000001003CUENTA BLOQUEADA              BEUR000000001000020260401
0000002001USD TREASURY                  AUSD000000025000020260401
