TRX00000000120260415ES9121000418450200051332D0000000025000EURATM       PAGO PROVEEDOR      
TRX00000000220260415ES7921000813610123456789C0000000120000EURPAYROLL   ABONO NOMINA        
TRX00000000320260415ES3021000418401234567891D0000000005000EURBRANCH    CUENTA BLOQUEADA    
TRX00000000420260415ES0000000000000000000000D0000000002000EURWEB       CTA INEXISTENTE     
TRX00000000520260415ES9121000418450200051332D0000000500000EURWEB       SALDO INSUFICIENTE  
TRX00000000620260415ES6621000418401234567890C0000000030000EURSWIFT     DIVISA INCORRECTA   
TRX00000000720260415ES7921000813610123456789X0000000001000EURAPI       TIPO INVALIDO       
TRX00000000820260415ES9121000418450200051332C0000000000000EURAPI       IMPORTE CERO        
TRX00000000920260415ES6621000418401234567890D0000000012575USDSWIFT     CARGO USD           
