TRX000000001202604150000001001D0000000025000EURATM       PAGO PROVEEDOR      
TRX000000002202604150000001002C0000000120000EURPAYROLL   ABONO NOMINA        
TRX000000003202604150000001003D0000000005000EURBRANCH    CUENTA BLOQUEADA    
TRX000000004202604150000009999D0000000002000EURWEB       CTA INEXISTENTE     
TRX000000005202604150000001001D0000000500000EURWEB       SALDO INSUFICIENTE  
TRX000000006202604150000002001C0000000030000EURSWIFT     DIVISA INCORRECTA   
TRX000000007202604150000001002X0000000001000EURAPI       TIPO INVALIDO       
TRX000000008202604150000001001C0000000000000EURAPI       IMPORTE CERO        
TRX000000009202604150000002001D0000000012575USDSWIFT     CARGO USD           
